{
  "contractName": "Token",
  "abi": [
    {
      "inputs": [
        {
          "internalType": "string",
          "name": "name",
          "type": "string"
        },
        {
          "internalType": "string",
          "name": "symbol",
          "type": "string"
        }
      ],
      "stateMutability": "nonpayable",
      "type": "constructor"
    },
    {
      "anonymous": false,
      "inputs": [
        {
          "indexed": true,
          "internalType": "address",
          "name": "owner",
          "type": "address"
        },
        {
          "indexed": true,
          "internalType": "address",
          "name": "approved",
          "type": "address"
        },
        {
          "indexed": true,
          "internalType": "uint256",
          "name": "tokenId",
          "type": "uint256"
        }
      ],
      "name": "Approval",
      "type": "event"
    },
    {
      "anonymous": false,
      "inputs": [
        {
          "indexed": true,
          "internalType": "address",
          "name": "owner",
          "type": "address"
        },
        {
          "indexed": true,
          "internalType": "address",
          "name": "operator",
          "type": "address"
        },
        {
          "indexed": false,
          "internalType": "bool",
          "name": "approved",
          "type": "bool"
        }
      ],
      "name": "ApprovalForAll",
      "type": "event"
    },
    {
      "anonymous": false,
      "inputs": [
        {
          "indexed": true,
          "internalType": "address",
          "name": "previousOwner",
          "type": "address"
        },
        {
          "indexed": true,
          "internalType": "address",
          "name": "newOwner",
          "type": "address"
        }
      ],
      "name": "OwnershipTransferred",
      "type": "event"
    },
    {
      "anonymous": false,
      "inputs": [
        {
          "indexed": true,
          "internalType": "address",
          "name": "from",
          "type": "address"
        },
        {
          "indexed": true,
          "internalType": "address",
          "name": "to",
          "type": "address"
        },
        {
          "indexed": true,
          "internalType": "uint256",
          "name": "tokenId",
          "type": "uint256"
        }
      ],
      "name": "Transfer",
      "type": "event"
    },
    {
      "inputs": [
        {
          "internalType": "address",
          "name": "to",
          "type": "address"
        },
        {
          "internalType": "uint256",
          "name": "tokenId",
          "type": "uint256"
        }
      ],
      "name": "approve",
      "outputs": [],
      "stateMutability": "nonpayable",
      "type": "function"
    },
    {
      "inputs": [
        {
          "internalType": "address",
          "name": "owner",
          "type": "address"
        }
      ],
      "name": "balanceOf",
      "outputs": [
        {
          "internalType": "uint256",
          "name": "",
          "type": "uint256"
        }
      ],
      "stateMutability": "view",
      "type": "function"
    },
    {
      "inputs": [
        {
          "internalType": "uint256",
          "name": "tokenId",
          "type": "uint256"
        }
      ],
      "name": "getApproved",
      "outputs": [
        {
          "internalType": "address",
          "name": "",
          "type": "address"
        }
      ],
      "stateMutability": "view",
      "type": "function"
    },
    {
      "inputs": [
        {
          "internalType": "address",
          "name": "owner",
          "type": "address"
        },
        {
          "internalType": "address",
          "name": "operator",
          "type": "address"
        }
      ],
      "name": "isApprovedForAll",
      "outputs": [
        {
          "internalType": "bool",
          "name": "",
          "type": "bool"
        }
      ],
      "stateMutability": "view",
      "type": "function"
    },
    {
      "inputs": [],
      "name": "name",
      "outputs": [
        {
          "internalType": "string",
          "name": "",
          "type": "string"
        }
      ],
      "stateMutability": "view",
      "type": "function"
    },
    {
      "inputs": [],
      "name": "owner",
      "outputs": [
        {
          "internalType": "address",
          "name": "",
          "type": "address"
        }
      ],
      "stateMutability": "view",
      "type": "function"
    },
    {
      "inputs": [
        {
          "internalType": "uint256",
          "name": "tokenId",
          "type": "uint256"
        }
      ],
      "name": "ownerOf",
      "outputs": [
        {
          "internalType": "address",
          "name": "",
          "type": "address"
        }
      ],
      "stateMutability": "view",
      "type": "function"
    },
    {
      "inputs": [],
      "name": "renounceOwnership",
      "outputs": [],
      "stateMutability": "nonpayable",
      "type": "function"
    },
    {
      "inputs": [
        {
          "internalType": "address",
          "name": "from",
          "type": "address"
        },
        {
          "internalType": "address",
          "name": "to",
          "type": "address"
        },
        {
          "internalType": "uint256",
          "name": "tokenId",
          "type": "uint256"
        }
      ],
      "name": "safeTransferFrom",
      "outputs": [],
      "stateMutability": "nonpayable",
      "type": "function"
    },
    {
      "inputs": [
        {
          "internalType": "address",
          "name": "from",
          "type": "address"
        },
        {
          "internalType": "address",
          "name": "to",
          "type": "address"
        },
        {
          "internalType": "uint256",
          "name": "tokenId",
          "type": "uint256"
        },
        {
          "internalType": "bytes",
          "name": "_data",
          "type": "bytes"
        }
      ],
      "name": "safeTransferFrom",
      "outputs": [],
      "stateMutability": "nonpayable",
      "type": "function"
    },
    {
      "inputs": [
        {
          "internalType": "address",
          "name": "operator",
          "type": "address"
        },
        {
          "internalType": "bool",
          "name": "approved",
          "type": "bool"
        }
      ],
      "name": "setApprovalForAll",
      "outputs": [],
      "stateMutability": "nonpayable",
      "type": "function"
    },
    {
      "inputs": [
        {
          "internalType": "bytes4",
          "name": "interfaceId",
          "type": "bytes4"
        }
      ],
      "name": "supportsInterface",
      "outputs": [
        {
          "internalType": "bool",
          "name": "",
          "type": "bool"
        }
      ],
      "stateMutability": "view",
      "type": "function"
    },
    {
      "inputs": [],
      "name": "symbol",
      "outputs": [
        {
          "internalType": "string",
          "name": "",
          "type": "string"
        }
      ],
      "stateMutability": "view",
      "type": "function"
    },
    {
      "inputs": [
        {
          "internalType": "uint256",
          "name": "tokenId",
          "type": "uint256"
        }
      ],
      "name": "tokenURI",
      "outputs": [
        {
          "internalType": "string",
          "name": "",
          "type": "string"
        }
      ],
      "stateMutability": "view",
      "type": "function"
    },
    {
      "inputs": [
        {
          "internalType": "address",
          "name": "from",
          "type": "address"
        },
        {
          "internalType": "address",
          "name": "to",
          "type": "address"
        },
        {
          "internalType": "uint256",
          "name": "tokenId",
          "type": "uint256"
        }
      ],
      "name": "transferFrom",
      "outputs": [],
      "stateMutability": "nonpayable",
      "type": "function"
    },
    {
      "inputs": [
        {
          "internalType": "address",
          "name": "newOwner",
          "type": "address"
        }
      ],
      "name": "transferOwnership",
      "outputs": [],
      "stateMutability": "nonpayable",
      "type": "function"
    },
    {
      "inputs": [
        {
          "internalType": "uint256",
          "name": "tokenId",
          "type": "uint256"
        }
      ],
      "name": "getTokenDetails",
      "outputs": [
        {
          "components": [
            {
              "internalType": "uint8",
              "name": "damage",
              "type": "uint8"
            },
            {
              "internalType": "uint8",
              "name": "magic",
              "type": "uint8"
            },
            {
              "internalType": "uint256",
              "name": "lastMeal",
              "type": "uint256"
            },
            {
              "internalType": "uint256",
              "name": "endurance",
              "type": "uint256"
            }
          ],
          "internalType": "struct Token.Pet",
          "name": "",
          "type": "tuple"
        }
      ],
      "stateMutability": "view",
      "type": "function"
    },
    {
      "inputs": [
        {
          "internalType": "uint8",
          "name": "damage",
          "type": "uint8"
        },
        {
          "internalType": "uint8",
          "name": "magic",
          "type": "uint8"
        },
        {
          "internalType": "uint8",
          "name": "endurance",
          "type": "uint8"
        }
      ],
      "name": "mint",
      "outputs": [],
      "stateMutability": "nonpayable",
      "type": "function"
    },
    {
      "inputs": [
        {
          "internalType": "uint256",
          "name": "tokenId",
          "type": "uint256"
        }
      ],
      "name": "feed",
      "outputs": [],
      "stateMutability": "nonpayable",
      "type": "function"
    }
  ],
  "bytecode": "0x608060405260006007553480156200001657600080fd5b50604051620033843803806200338483398181016040528101906200003c919062000296565b818181600090805190602001906200005692919062000168565b5080600190805190602001906200006f92919062000168565b50505062000092620000866200009a60201b60201c565b620000a260201b60201c565b50506200049f565b600033905090565b6000600660009054906101000a900473ffffffffffffffffffffffffffffffffffffffff16905081600660006101000a81548173ffffffffffffffffffffffffffffffffffffffff021916908373ffffffffffffffffffffffffffffffffffffffff1602179055508173ffffffffffffffffffffffffffffffffffffffff168173ffffffffffffffffffffffffffffffffffffffff167f8be0079c531659141344cd1fd0a4f28419497f9722a3daafe3b4186f6b6457e060405160405180910390a35050565b8280546200017690620003b0565b90600052602060002090601f0160209004810192826200019a5760008555620001e6565b82601f10620001b557805160ff1916838001178555620001e6565b82800160010185558215620001e6579182015b82811115620001e5578251825591602001919060010190620001c8565b5b509050620001f59190620001f9565b5090565b5b8082111562000214576000816000905550600101620001fa565b5090565b60006200022f620002298462000344565b6200031b565b9050828152602081018484840111156200024e576200024d6200047f565b5b6200025b8482856200037a565b509392505050565b600082601f8301126200027b576200027a6200047a565b5b81516200028d84826020860162000218565b91505092915050565b60008060408385031215620002b057620002af62000489565b5b600083015167ffffffffffffffff811115620002d157620002d062000484565b5b620002df8582860162000263565b925050602083015167ffffffffffffffff81111562000303576200030262000484565b5b620003118582860162000263565b9150509250929050565b6000620003276200033a565b9050620003358282620003e6565b919050565b6000604051905090565b600067ffffffffffffffff8211156200036257620003616200044b565b5b6200036d826200048e565b9050602081019050919050565b60005b838110156200039a5780820151818401526020810190506200037d565b83811115620003aa576000848401525b50505050565b60006002820490506001821680620003c957607f821691505b60208210811415620003e057620003df6200041c565b5b50919050565b620003f1826200048e565b810181811067ffffffffffffffff821117156200041357620004126200044b565b5b80604052505050565b7f4e487b7100000000000000000000000000000000000000000000000000000000600052602260045260246000fd5b7f4e487b7100000000000000000000000000000000000000000000000000000000600052604160045260246000fd5b600080fd5b600080fd5b600080fd5b600080fd5b6000601f19601f8301169050919050565b612ed580620004af6000396000f3fe608060405234801561001057600080fd5b50600436106101215760003560e01c80638da5cb5b116100ad578063c87b56dd11610071578063c87b56dd14610306578063e6f12af914610336578063e985e9c514610352578063f2fde38b14610382578063f59dfdfb1461039e57610121565b80638da5cb5b1461026257806395d89b4114610280578063a22cb4651461029e578063b88d4fde146102ba578063c1e03728146102d657610121565b806323b872dd116100f457806323b872dd146101c057806342842e0e146101dc5780636352211e146101f857806370a0823114610228578063715018a61461025857610121565b806301ffc9a71461012657806306fdde0314610156578063081812fc14610174578063095ea7b3146101a4575b600080fd5b610140600480360381019061013b9190611e85565b6103ba565b60405161014d919061235d565b60405180910390f35b61015e61049c565b60405161016b9190612378565b60405180910390f35b61018e60048036038101906101899190611edf565b61052e565b60405161019b91906122f6565b60405180910390f35b6101be60048036038101906101b99190611e45565b6105b3565b005b6101da60048036038101906101d59190611d2f565b6106cb565b005b6101f660048036038101906101f19190611d2f565b61072b565b005b610212600480360381019061020d9190611edf565b61074b565b60405161021f91906122f6565b60405180910390f35b610242600480360381019061023d9190611cc2565b6107fd565b60405161024f91906125b5565b60405180910390f35b6102606108b5565b005b61026a61093d565b60405161027791906122f6565b60405180910390f35b610288610967565b6040516102959190612378565b60405180910390f35b6102b860048036038101906102b39190611e05565b6109f9565b005b6102d460048036038101906102cf9190611d82565b610b7a565b005b6102f060048036038101906102eb9190611edf565b610bdc565b6040516102fd919061259a565b60405180910390f35b610320600480360381019061031b9190611edf565b610c57565b60405161032d9190612378565b60405180910390f35b610350600480360381019061034b9190611f0c565b610cfe565b005b61036c60048036038101906103679190611cef565b610e3b565b604051610379919061235d565b60405180910390f35b61039c60048036038101906103979190611cc2565b610ecf565b005b6103b860048036038101906103b39190611edf565b610fc7565b005b60007f80ac58cd000000000000000000000000000000000000000000000000000000007bffffffffffffffffffffffffffffffffffffffffffffffffffffffff1916827bffffffffffffffffffffffffffffffffffffffffffffffffffffffff1916148061048557507f5b5e139f000000000000000000000000000000000000000000000000000000007bffffffffffffffffffffffffffffffffffffffffffffffffffffffff1916827bffffffffffffffffffffffffffffffffffffffffffffffffffffffff1916145b8061049557506104948261100c565b5b9050919050565b6060600080546104ab906127e7565b80601f01602080910402602001604051908101604052809291908181526020018280546104d7906127e7565b80156105245780601f106104f957610100808354040283529160200191610524565b820191906000526020600020905b81548152906001019060200180831161050757829003601f168201915b5050505050905090565b600061053982611076565b610578576040517f08c379a000000000000000000000000000000000000000000000000000000000815260040161056f906124da565b60405180910390fd5b6004600083815260200190815260200160002060009054906101000a900473ffffffffffffffffffffffffffffffffffffffff169050919050565b60006105be8261074b565b90508073ffffffffffffffffffffffffffffffffffffffff168373ffffffffffffffffffffffffffffffffffffffff16141561062f576040517f08c379a00000000000000000000000000000000000000000000000000000000081526004016106269061255a565b60405180910390fd5b8073ffffffffffffffffffffffffffffffffffffffff1661064e6110e2565b73ffffffffffffffffffffffffffffffffffffffff16148061067d575061067c816106776110e2565b610e3b565b5b6106bc576040517f08c379a00000000000000000000000000000000000000000000000000000000081526004016106b39061245a565b60405180910390fd5b6106c683836110ea565b505050565b6106dc6106d66110e2565b826111a3565b61071b576040517f08c379a00000000000000000000000000000000000000000000000000000000081526004016107129061257a565b60405180910390fd5b610726838383611281565b505050565b61074683838360405180602001604052806000815250610b7a565b505050565b6000806002600084815260200190815260200160002060009054906101000a900473ffffffffffffffffffffffffffffffffffffffff169050600073ffffffffffffffffffffffffffffffffffffffff168173ffffffffffffffffffffffffffffffffffffffff1614156107f4576040517f08c379a00000000000000000000000000000000000000000000000000000000081526004016107eb9061249a565b60405180910390fd5b80915050919050565b60008073ffffffffffffffffffffffffffffffffffffffff168273ffffffffffffffffffffffffffffffffffffffff16141561086e576040517f08c379a00000000000000000000000000000000000000000000000000000000081526004016108659061247a565b60405180910390fd5b600360008373ffffffffffffffffffffffffffffffffffffffff1673ffffffffffffffffffffffffffffffffffffffff168152602001908152602001600020549050919050565b6108bd6110e2565b73ffffffffffffffffffffffffffffffffffffffff166108db61093d565b73ffffffffffffffffffffffffffffffffffffffff1614610931576040517f08c379a0000000000000000000000000000000000000000000000000000000008152600401610928906124fa565b60405180910390fd5b61093b60006114dd565b565b6000600660009054906101000a900473ffffffffffffffffffffffffffffffffffffffff16905090565b606060018054610976906127e7565b80601f01602080910402602001604051908101604052809291908181526020018280546109a2906127e7565b80156109ef5780601f106109c4576101008083540402835291602001916109ef565b820191906000526020600020905b8154815290600101906020018083116109d257829003601f168201915b5050505050905090565b610a016110e2565b73ffffffffffffffffffffffffffffffffffffffff168273ffffffffffffffffffffffffffffffffffffffff161415610a6f576040517f08c379a0000000000000000000000000000000000000000000000000000000008152600401610a669061241a565b60405180910390fd5b8060056000610a7c6110e2565b73ffffffffffffffffffffffffffffffffffffffff1673ffffffffffffffffffffffffffffffffffffffff16815260200190815260200160002060008473ffffffffffffffffffffffffffffffffffffffff1673ffffffffffffffffffffffffffffffffffffffff16815260200190815260200160002060006101000a81548160ff0219169083151502179055508173ffffffffffffffffffffffffffffffffffffffff16610b296110e2565b73ffffffffffffffffffffffffffffffffffffffff167f17307eab39ab6107e8899845ad3d59bd9653f200f220920489ca2b5937696c3183604051610b6e919061235d565b60405180910390a35050565b610b8b610b856110e2565b836111a3565b610bca576040517f08c379a0000000000000000000000000000000000000000000000000000000008152600401610bc19061257a565b60405180910390fd5b610bd6848484846115a3565b50505050565b610be4611ba6565b600860008381526020019081526020016000206040518060800160405290816000820160009054906101000a900460ff1660ff1660ff1681526020016000820160019054906101000a900460ff1660ff1660ff168152602001600182015481526020016002820154815250509050919050565b6060610c6282611076565b610ca1576040517f08c379a0000000000000000000000000000000000000000000000000000000008152600401610c989061253a565b60405180910390fd5b6000610cab6115ff565b90506000815111610ccb5760405180602001604052806000815250610cf6565b80610cd584611616565b604051602001610ce69291906122d2565b6040516020818303038152906040525b915050919050565b610d066110e2565b73ffffffffffffffffffffffffffffffffffffffff16610d2461093d565b73ffffffffffffffffffffffffffffffffffffffff1614610d7a576040517f08c379a0000000000000000000000000000000000000000000000000000000008152600401610d71906124fa565b60405180910390fd5b610d8633600754611777565b60405180608001604052808460ff1681526020018360ff1681526020014281526020018260ff1681525060086000600754815260200190815260200160002060008201518160000160006101000a81548160ff021916908360ff16021790555060208201518160000160016101000a81548160ff021916908360ff160217905550604082015181600101556060820151816002015590505060076000815480929190610e319061284a565b9190505550505050565b6000600560008473ffffffffffffffffffffffffffffffffffffffff1673ffffffffffffffffffffffffffffffffffffffff16815260200190815260200160002060008373ffffffffffffffffffffffffffffffffffffffff1673ffffffffffffffffffffffffffffffffffffffff16815260200190815260200160002060009054906101000a900460ff16905092915050565b610ed76110e2565b73ffffffffffffffffffffffffffffffffffffffff16610ef561093d565b73ffffffffffffffffffffffffffffffffffffffff1614610f4b576040517f08c379a0000000000000000000000000000000000000000000000000000000008152600401610f42906124fa565b60405180910390fd5b600073ffffffffffffffffffffffffffffffffffffffff168173ffffffffffffffffffffffffffffffffffffffff161415610fbb576040517f08c379a0000000000000000000000000000000000000000000000000000000008152600401610fb2906123ba565b60405180910390fd5b610fc4816114dd565b50565b600060086000600754815260200190815260200160002090504281600201548260010154610ff59190612669565b11610fff57600080fd5b4281600101819055505050565b60007f01ffc9a7000000000000000000000000000000000000000000000000000000007bffffffffffffffffffffffffffffffffffffffffffffffffffffffff1916827bffffffffffffffffffffffffffffffffffffffffffffffffffffffff1916149050919050565b60008073ffffffffffffffffffffffffffffffffffffffff166002600084815260200190815260200160002060009054906101000a900473ffffffffffffffffffffffffffffffffffffffff1673ffffffffffffffffffffffffffffffffffffffff1614159050919050565b600033905090565b816004600083815260200190815260200160002060006101000a81548173ffffffffffffffffffffffffffffffffffffffff021916908373ffffffffffffffffffffffffffffffffffffffff160217905550808273ffffffffffffffffffffffffffffffffffffffff1661115d8361074b565b73ffffffffffffffffffffffffffffffffffffffff167f8c5be1e5ebec7d5bd14f71427d1e84f3dd0314c0f7b2291e5b200ac8c7c3b92560405160405180910390a45050565b60006111ae82611076565b6111ed576040517f08c379a00000000000000000000000000000000000000000000000000000000081526004016111e49061243a565b60405180910390fd5b60006111f88361074b565b90508073ffffffffffffffffffffffffffffffffffffffff168473ffffffffffffffffffffffffffffffffffffffff16148061126757508373ffffffffffffffffffffffffffffffffffffffff1661124f8461052e565b73ffffffffffffffffffffffffffffffffffffffff16145b8061127857506112778185610e3b565b5b91505092915050565b8273ffffffffffffffffffffffffffffffffffffffff166112a18261074b565b73ffffffffffffffffffffffffffffffffffffffff16146112f7576040517f08c379a00000000000000000000000000000000000000000000000000000000081526004016112ee9061251a565b60405180910390fd5b600073ffffffffffffffffffffffffffffffffffffffff168273ffffffffffffffffffffffffffffffffffffffff161415611367576040517f08c379a000000000000000000000000000000000000000000000000000000000815260040161135e906123fa565b60405180910390fd5b611372838383611795565b61137d6000826110ea565b6001600360008573ffffffffffffffffffffffffffffffffffffffff1673ffffffffffffffffffffffffffffffffffffffff16815260200190815260200160002060008282546113cd91906126f0565b925050819055506001600360008473ffffffffffffffffffffffffffffffffffffffff1673ffffffffffffffffffffffffffffffffffffffff16815260200190815260200160002060008282546114249190612669565b92505081905550816002600083815260200190815260200160002060006101000a81548173ffffffffffffffffffffffffffffffffffffffff021916908373ffffffffffffffffffffffffffffffffffffffff160217905550808273ffffffffffffffffffffffffffffffffffffffff168473ffffffffffffffffffffffffffffffffffffffff167fddf252ad1be2c89b69c2b068fc378daa952ba7f163c4a11628f55a4df523b3ef60405160405180910390a4505050565b6000600660009054906101000a900473ffffffffffffffffffffffffffffffffffffffff16905081600660006101000a81548173ffffffffffffffffffffffffffffffffffffffff021916908373ffffffffffffffffffffffffffffffffffffffff1602179055508173ffffffffffffffffffffffffffffffffffffffff168173ffffffffffffffffffffffffffffffffffffffff167f8be0079c531659141344cd1fd0a4f28419497f9722a3daafe3b4186f6b6457e060405160405180910390a35050565b6115ae848484611281565b6115ba848484846117d3565b6115f9576040517f08c379a00000000000000000000000000000000000000000000000000000000081526004016115f09061239a565b60405180910390fd5b50505050565b606060405180602001604052806000815250905090565b6060600082141561165e576040518060400160405280600181526020017f30000000000000000000000000000000000000000000000000000000000000008152509050611772565b600082905060005b600082146116905780806116799061284a565b915050600a8261168991906126bf565b9150611666565b60008167ffffffffffffffff8111156116ac576116ab612980565b5b6040519080825280601f01601f1916602001820160405280156116de5781602001600182028036833780820191505090505b5090505b6000851461176b576001826116f791906126f0565b9150600a856117069190612893565b60306117129190612669565b60f81b81838151811061172857611727612951565b5b60200101907effffffffffffffffffffffffffffffffffffffffffffffffffffffffffffff1916908160001a905350600a8561176491906126bf565b94506116e2565b8093505050505b919050565b61179182826040518060200160405280600081525061196a565b5050565b6000600860006007548152602001908152602001600020905042816002015482600101546117c39190612669565b116117cd57600080fd5b50505050565b60006117f48473ffffffffffffffffffffffffffffffffffffffff166119c5565b1561195d578373ffffffffffffffffffffffffffffffffffffffff1663150b7a0261181d6110e2565b8786866040518563ffffffff1660e01b815260040161183f9493929190612311565b602060405180830381600087803b15801561185957600080fd5b505af192505050801561188a57506040513d601f19601f820116820180604052508101906118879190611eb2565b60015b61190d573d80600081146118ba576040519150601f19603f3d011682016040523d82523d6000602084013e6118bf565b606091505b50600081511415611905576040517f08c379a00000000000000000000000000000000000000000000000000000000081526004016118fc9061239a565b60405180910390fd5b805181602001fd5b63150b7a0260e01b7bffffffffffffffffffffffffffffffffffffffffffffffffffffffff1916817bffffffffffffffffffffffffffffffffffffffffffffffffffffffff191614915050611962565b600190505b949350505050565b61197483836119d8565b61198160008484846117d3565b6119c0576040517f08c379a00000000000000000000000000000000000000000000000000000000081526004016119b79061239a565b60405180910390fd5b505050565b600080823b905060008111915050919050565b600073ffffffffffffffffffffffffffffffffffffffff168273ffffffffffffffffffffffffffffffffffffffff161415611a48576040517f08c379a0000000000000000000000000000000000000000000000000000000008152600401611a3f906124ba565b60405180910390fd5b611a5181611076565b15611a91576040517f08c379a0000000000000000000000000000000000000000000000000000000008152600401611a88906123da565b60405180910390fd5b611a9d60008383611795565b6001600360008473ffffffffffffffffffffffffffffffffffffffff1673ffffffffffffffffffffffffffffffffffffffff1681526020019081526020016000206000828254611aed9190612669565b92505081905550816002600083815260200190815260200160002060006101000a81548173ffffffffffffffffffffffffffffffffffffffff021916908373ffffffffffffffffffffffffffffffffffffffff160217905550808273ffffffffffffffffffffffffffffffffffffffff16600073ffffffffffffffffffffffffffffffffffffffff167fddf252ad1be2c89b69c2b068fc378daa952ba7f163c4a11628f55a4df523b3ef60405160405180910390a45050565b6040518060800160405280600060ff168152602001600060ff16815260200160008152602001600081525090565b6000611be7611be2846125f5565b6125d0565b905082815260208101848484011115611c0357611c026129b4565b5b611c0e8482856127a5565b509392505050565b600081359050611c2581612e2c565b92915050565b600081359050611c3a81612e43565b92915050565b600081359050611c4f81612e5a565b92915050565b600081519050611c6481612e5a565b92915050565b600082601f830112611c7f57611c7e6129af565b5b8135611c8f848260208601611bd4565b91505092915050565b600081359050611ca781612e71565b92915050565b600081359050611cbc81612e88565b92915050565b600060208284031215611cd857611cd76129be565b5b6000611ce684828501611c16565b91505092915050565b60008060408385031215611d0657611d056129be565b5b6000611d1485828601611c16565b9250506020611d2585828601611c16565b9150509250929050565b600080600060608486031215611d4857611d476129be565b5b6000611d5686828701611c16565b9350506020611d6786828701611c16565b9250506040611d7886828701611c98565b9150509250925092565b60008060008060808587031215611d9c57611d9b6129be565b5b6000611daa87828801611c16565b9450506020611dbb87828801611c16565b9350506040611dcc87828801611c98565b925050606085013567ffffffffffffffff811115611ded57611dec6129b9565b5b611df987828801611c6a565b91505092959194509250565b60008060408385031215611e1c57611e1b6129be565b5b6000611e2a85828601611c16565b9250506020611e3b85828601611c2b565b9150509250929050565b60008060408385031215611e5c57611e5b6129be565b5b6000611e6a85828601611c16565b9250506020611e7b85828601611c98565b9150509250929050565b600060208284031215611e9b57611e9a6129be565b5b6000611ea984828501611c40565b91505092915050565b600060208284031215611ec857611ec76129be565b5b6000611ed684828501611c55565b91505092915050565b600060208284031215611ef557611ef46129be565b5b6000611f0384828501611c98565b91505092915050565b600080600060608486031215611f2557611f246129be565b5b6000611f3386828701611cad565b9350506020611f4486828701611cad565b9250506040611f5586828701611cad565b9150509250925092565b611f6881612724565b82525050565b611f7781612736565b82525050565b6000611f8882612626565b611f92818561263c565b9350611fa28185602086016127b4565b611fab816129c3565b840191505092915050565b6000611fc182612631565b611fcb818561264d565b9350611fdb8185602086016127b4565b611fe4816129c3565b840191505092915050565b6000611ffa82612631565b612004818561265e565b93506120148185602086016127b4565b80840191505092915050565b600061202d60328361264d565b9150612038826129d4565b604082019050919050565b600061205060268361264d565b915061205b82612a23565b604082019050919050565b6000612073601c8361264d565b915061207e82612a72565b602082019050919050565b600061209660248361264d565b91506120a182612a9b565b604082019050919050565b60006120b960198361264d565b91506120c482612aea565b602082019050919050565b60006120dc602c8361264d565b91506120e782612b13565b604082019050919050565b60006120ff60388361264d565b915061210a82612b62565b604082019050919050565b6000612122602a8361264d565b915061212d82612bb1565b604082019050919050565b600061214560298361264d565b915061215082612c00565b604082019050919050565b600061216860208361264d565b915061217382612c4f565b602082019050919050565b600061218b602c8361264d565b915061219682612c78565b604082019050919050565b60006121ae60208361264d565b91506121b982612cc7565b602082019050919050565b60006121d160298361264d565b91506121dc82612cf0565b604082019050919050565b60006121f4602f8361264d565b91506121ff82612d3f565b604082019050919050565b600061221760218361264d565b915061222282612d8e565b604082019050919050565b600061223a60318361264d565b915061224582612ddd565b604082019050919050565b60808201600082015161226660008501826122c3565b50602082015161227960208501826122c3565b50604082015161228c60408501826122a5565b50606082015161229f60608501826122a5565b50505050565b6122ae8161278e565b82525050565b6122bd8161278e565b82525050565b6122cc81612798565b82525050565b60006122de8285611fef565b91506122ea8284611fef565b91508190509392505050565b600060208201905061230b6000830184611f5f565b92915050565b60006080820190506123266000830187611f5f565b6123336020830186611f5f565b61234060408301856122b4565b81810360608301526123528184611f7d565b905095945050505050565b60006020820190506123726000830184611f6e565b92915050565b600060208201905081810360008301526123928184611fb6565b905092915050565b600060208201905081810360008301526123b381612020565b9050919050565b600060208201905081810360008301526123d381612043565b9050919050565b600060208201905081810360008301526123f381612066565b9050919050565b6000602082019050818103600083015261241381612089565b9050919050565b60006020820190508181036000830152612433816120ac565b9050919050565b60006020820190508181036000830152612453816120cf565b9050919050565b60006020820190508181036000830152612473816120f2565b9050919050565b6000602082019050818103600083015261249381612115565b9050919050565b600060208201905081810360008301526124b381612138565b9050919050565b600060208201905081810360008301526124d38161215b565b9050919050565b600060208201905081810360008301526124f38161217e565b9050919050565b60006020820190508181036000830152612513816121a1565b9050919050565b60006020820190508181036000830152612533816121c4565b9050919050565b60006020820190508181036000830152612553816121e7565b9050919050565b600060208201905081810360008301526125738161220a565b9050919050565b600060208201905081810360008301526125938161222d565b9050919050565b60006080820190506125af6000830184612250565b92915050565b60006020820190506125ca60008301846122b4565b92915050565b60006125da6125eb565b90506125e68282612819565b919050565b6000604051905090565b600067ffffffffffffffff8211156126105761260f612980565b5b612619826129c3565b9050602081019050919050565b600081519050919050565b600081519050919050565b600082825260208201905092915050565b600082825260208201905092915050565b600081905092915050565b60006126748261278e565b915061267f8361278e565b9250827fffffffffffffffffffffffffffffffffffffffffffffffffffffffffffffffff038211156126b4576126b36128c4565b5b828201905092915050565b60006126ca8261278e565b91506126d58361278e565b9250826126e5576126e46128f3565b5b828204905092915050565b60006126fb8261278e565b91506127068361278e565b925082821015612719576127186128c4565b5b828203905092915050565b600061272f8261276e565b9050919050565b60008115159050919050565b60007fffffffff0000000000000000000000000000000000000000000000000000000082169050919050565b600073ffffffffffffffffffffffffffffffffffffffff82169050919050565b6000819050919050565b600060ff82169050919050565b82818337600083830152505050565b60005b838110156127d25780820151818401526020810190506127b7565b838111156127e1576000848401525b50505050565b600060028204905060018216806127ff57607f821691505b6020821081141561281357612812612922565b5b50919050565b612822826129c3565b810181811067ffffffffffffffff8211171561284157612840612980565b5b80604052505050565b60006128558261278e565b91507fffffffffffffffffffffffffffffffffffffffffffffffffffffffffffffffff821415612888576128876128c4565b5b600182019050919050565b600061289e8261278e565b91506128a98361278e565b9250826128b9576128b86128f3565b5b828206905092915050565b7f4e487b7100000000000000000000000000000000000000000000000000000000600052601160045260246000fd5b7f4e487b7100000000000000000000000000000000000000000000000000000000600052601260045260246000fd5b7f4e487b7100000000000000000000000000000000000000000000000000000000600052602260045260246000fd5b7f4e487b7100000000000000000000000000000000000000000000000000000000600052603260045260246000fd5b7f4e487b7100000000000000000000000000000000000000000000000000000000600052604160045260246000fd5b600080fd5b600080fd5b600080fd5b600080fd5b6000601f19601f8301169050919050565b7f4552433732313a207472616e7366657220746f206e6f6e20455243373231526560008201527f63656976657220696d706c656d656e7465720000000000000000000000000000602082015250565b7f4f776e61626c653a206e6577206f776e657220697320746865207a65726f206160008201527f6464726573730000000000000000000000000000000000000000000000000000602082015250565b7f4552433732313a20746f6b656e20616c7265616479206d696e74656400000000600082015250565b7f4552433732313a207472616e7366657220746f20746865207a65726f2061646460008201527f7265737300000000000000000000000000000000000000000000000000000000602082015250565b7f4552433732313a20617070726f766520746f2063616c6c657200000000000000600082015250565b7f4552433732313a206f70657261746f7220717565727920666f72206e6f6e657860008201527f697374656e7420746f6b656e0000000000000000000000000000000000000000602082015250565b7f4552433732313a20617070726f76652063616c6c6572206973206e6f74206f7760008201527f6e6572206e6f7220617070726f76656420666f7220616c6c0000000000000000602082015250565b7f4552433732313a2062616c616e636520717565727920666f7220746865207a6560008201527f726f206164647265737300000000000000000000000000000000000000000000602082015250565b7f4552433732313a206f776e657220717565727920666f72206e6f6e657869737460008201527f656e7420746f6b656e0000000000000000000000000000000000000000000000602082015250565b7f4552433732313a206d696e7420746f20746865207a65726f2061646472657373600082015250565b7f4552433732313a20617070726f76656420717565727920666f72206e6f6e657860008201527f697374656e7420746f6b656e0000000000000000000000000000000000000000602082015250565b7f4f776e61626c653a2063616c6c6572206973206e6f7420746865206f776e6572600082015250565b7f4552433732313a207472616e73666572206f6620746f6b656e2074686174206960008201527f73206e6f74206f776e0000000000000000000000000000000000000000000000602082015250565b7f4552433732314d657461646174613a2055524920717565727920666f72206e6f60008201527f6e6578697374656e7420746f6b656e0000000000000000000000000000000000602082015250565b7f4552433732313a20617070726f76616c20746f2063757272656e74206f776e6560008201527f7200000000000000000000000000000000000000000000000000000000000000602082015250565b7f4552433732313a207472616e736665722063616c6c6572206973206e6f74206f60008201527f776e6572206e6f7220617070726f766564000000000000000000000000000000602082015250565b612e3581612724565b8114612e4057600080fd5b50565b612e4c81612736565b8114612e5757600080fd5b50565b612e6381612742565b8114612e6e57600080fd5b50565b612e7a8161278e565b8114612e8557600080fd5b50565b612e9181612798565b8114612e9c57600080fd5b5056fea26469706673582212206dcc8bcdc20906cd0ba1b76ae7869a73d81e03bb3f8ddaf8c6294682fae5eb6964736f6c63430008060033",
  "immutableReferences": {},
  "source": "// SPDX-License-Identifier: MIT\r\n\r\npragma solidity 0.8.6;\r\n\r\nimport \"../node_modules/@openzeppelin/contracts/token/ERC721/ERC721.sol\";\r\nimport \"../node_modules/@openzeppelin/contracts/access/Ownable.sol\";\r\ncontract Token is ERC721, Ownable {\r\n    \r\n    struct Pet {\r\n        uint8 damage; //0-255\r\n        uint8 magic;\r\n        uint256 lastMeal;\r\n        uint256 endurance; // 24 hours\r\n    }\r\n\r\n    uint256 nextId = 0;\r\n\r\n    mapping(uint256 => Pet) private _tokenDetails;\r\n\r\n    constructor(string memory name, string memory symbol) ERC721(name, symbol){\r\n\r\n    }\r\n\r\n    function getTokenDetails(uint256 tokenId) public view returns (Pet memory) {\r\n        return _tokenDetails[tokenId];\r\n    }\r\n\r\n    function mint(uint8 damage, uint8 magic, uint8 endurance) public onlyOwner {\r\n        _safeMint(msg.sender, nextId);\r\n        \r\n        _tokenDetails[nextId] = Pet(damage, magic, block.timestamp, endurance);\r\n        nextId++;\r\n    }\r\n\r\n    function feed(uint256 tokenId) public {\r\n        Pet storage pet = _tokenDetails[nextId];\r\n        require(pet.lastMeal + pet.endurance > block.timestamp);\r\n        pet.lastMeal = block.timestamp;\r\n    }\r\n\r\n    function _beforeTokenTransfer(address from, address to, uint256 tokenId) internal override {\r\n        Pet storage pet = _tokenDetails[nextId];\r\n        require(pet.lastMeal + pet.endurance > block.timestamp);\r\n    }\r\n}\r\n",
  "sourcePath": "C:\\Rafael\\NFT-game\\contracts\\Token.sol",
  "compiler": {
    "name": "solc",
    "version": "0.8.6+commit.11564f7e.Emscripten.clang"
  },
  "schemaVersion": "3.4.2",
  "updatedAt": "2021-08-10T00:25:49.412Z",
  "devdoc": {
    "kind": "dev",
    "methods": {
      "approve(address,uint256)": {
        "details": "See {IERC721-approve}."
      },
      "balanceOf(address)": {
        "details": "See {IERC721-balanceOf}."
      },
      "getApproved(uint256)": {
        "details": "See {IERC721-getApproved}."
      },
      "isApprovedForAll(address,address)": {
        "details": "See {IERC721-isApprovedForAll}."
      },
      "name()": {
        "details": "See {IERC721Metadata-name}."
      },
      "owner()": {
        "details": "Returns the address of the current owner."
      },
      "ownerOf(uint256)": {
        "details": "See {IERC721-ownerOf}."
      },
      "renounceOwnership()": {
        "details": "Leaves the contract without owner. It will not be possible to call `onlyOwner` functions anymore. Can only be called by the current owner. NOTE: Renouncing ownership will leave the contract without an owner, thereby removing any functionality that is only available to the owner."
      },
      "safeTransferFrom(address,address,uint256)": {
        "details": "See {IERC721-safeTransferFrom}."
      },
      "safeTransferFrom(address,address,uint256,bytes)": {
        "details": "See {IERC721-safeTransferFrom}."
      },
      "setApprovalForAll(address,bool)": {
        "details": "See {IERC721-setApprovalForAll}."
      },
      "supportsInterface(bytes4)": {
        "details": "See {IERC165-supportsInterface}."
      },
      "symbol()": {
        "details": "See {IERC721Metadata-symbol}."
      },
      "tokenURI(uint256)": {
        "details": "See {IERC721Metadata-tokenURI}."
      },
      "transferFrom(address,address,uint256)": {
        "details": "See {IERC721-transferFrom}."
      },
      "transferOwnership(address)": {
        "details": "Transfers ownership of the contract to a new account (`newOwner`). Can only be called by the current owner."
      }
    },
    "version": 1
  },
  "userdoc": {
    "kind": "user",
    "methods": {},
    "version": 1
  }
}